8=FIX.4.2^9=251^35=D^49=AFUNDMGR^56=ABROKER^34=2^52=20030615-01:14:49^11=12345^1=111111^63=0^64=20030621^21=3^110=1000^111=50000^55=IBM^48=459200101^22=1^54=1^60=2003061501:14:49 38=5000^40=1^44=15.75^15=USD^59=0^10=127